:400000000080002011000000E1040000E104000010B500F085FAC04670B51D4D12232B60182001F0A3FC1B4A1B4B1A601B4A116802230B4313601A4A1A4B1A6000241A4B1F
:400040001C601A4A136808218B431360FA20C00001F03EFD164801F07FFC164A164B1A60164A174B1A6080221206164B1A60164B1C604022154B1A601549082001F05AFCF9
:40008000082001F04BFC134B1C6011232B6070BD300010400600008004010B4078002E402D3E00007C002E4064F02E406CF02E40DC05000000DB02000003014040FF00803C
:4000C0000000014008010B4000010B401C010140691F00000C020B4010B572B60022254B1A6000240FE024486200131959000B00411889881A5AC31858880004104300F096
:40010000E9F90134E4B2012CEDD91B4801000C311C3000F0B5F9194A194B1A6099231B04184A136080218904174A1160174A1360174A1360174A117806230B43DBB213708A
:400140001022154B1A60D8221204144B1A600122134B1A600132134B1A60DE32124B1A60DB221204114B1A60FFF756FF00F0A2F910BDC0466CF02E40D82F0000000003EE49
:400180000000024000500F4008500F4010500F4030500F4000700F4000000440080004400001044008010440000304400803044010B5064C2378002B07D1054B002B02D0C0
:4001C000044800E000BF0123237010BD5801002000000000802F0000084B10B5002B03D00749084800E000BF07480368002B00D110BD064B002BFBD09847F9E7000000008A
:400200005C010020802F0000C00000200000000010B58020C00501F027FE012001F080FD0121002001F032FD0849002001F09AFD012001F057FD0649002001F057FE00204D
:4002400001F064FE062001F055FB10BDCC0C00005502000010B5074A136801331360092B02D90022034B1A6001F0BEFA0122014B1A7110BD7401002010B50122024B9A6063
:4002800000F0C6F910BDC0467401002010B501F0C3FF01F07FFF040001F082FF012C09D101F010FF0A4B186000F090F9C043C0B200F080F9022C09D101F004FF044B1860DC
:4002C00000F098F9C043C0B200F088F910BDC046F8010020F0B5474680B48AB001F042FC62B6584C584B2360584D65600021002001F0CCFC0121002001F08CFC012001F0C9
:40030000F1FC002001F01CFE5149002001F0EEFD504A0121002001F0AFFE01F05BFA29004D4801F0BFF80220404200F09DFF200000F084FF0A21012000F064F9474800F00E
:4003400075F9474801F05AFF01F014FF454B1B79002B74D0434F00233B7100F0D1FB050000F0E6FB04002B0D0322904613409A00D31859002A0C0F2632408A18280B072368
:400380009C4618408300181841002B0A3340CB1829096046014088004118480035404519396801910095304906A802F0BBF9230F012213409A00D3185900220E32408A1810
:4003C000210D434619408B0059184800230C3340C318200B41460840FA25AD0029004143200A3040642568434018210931408D0069184D0040193440041900941B4902A811
:4004000002F090F906A801F067FA194C200001F063FA02A801F060FA200001F05DFABB68012B06D1134801F057FA00220D4B9A6002E0114801F050FA104801F04DFA01F0E3
:4004400071FB83E7E8010020300104002020100811020000CC0C000000481300790200008D020000740100208C2F0000A42F0000B82F0000BC2F0000C82F0000D42F0000D1
:40048000F0B50025002711E0BB00C658F3B2FF22964308E06A008A181478A419527822700135013BDBB2002BF4D10137022FEBD9F0BDC0460323044A1360044A13600022B0
:4004C000034B1A607047C0463000304030003140000E3F4010B50A00002102F01BF910BD10B502F0EBF803680C2B00D1FEE7FEE710B50300084A1068C318084A9A1A802AF2
:4005000002DC054A136005E002F0D8F80C2303600120404210BDC046C40000207002002070B50F4E0F4D13E029686B68AC68002202E001C901C30432A242FAD1E8680022C4
:4005400002E0002102C304328242FAD11035013E002EE9D102F0B8F8FFF7BCFEFEE7C04601000000BC30000010B50E4A136801218B43136000230AE0032B03D89A000A495A
:40058000505800E009489900094A885001332F2BF2D9FFF7A1FD034A116801230B43136010BDC0460000104000000000E10400000000002004490A68D2B240239A438001DA
:4005C000184010430860704700030440024B186880090123184070470403044004490A687F231A40C301D8B2104308607047C04600030440024B1868C00901231840704785
:4006000004030440014B18605960704788010020044A0423D1689943D1600022024B1A607047C0464402002054020020024B9A68986010007047C04688010020F0B5574656
:400640004E464546E0B480460E00030B03221A40FA2080000100514343461B0A0F200340642463435A1843461B0903409900CB185B009B1842460240994691440024002536
:400680005F4F1FE0BB0705D16421380001F0DAFE002908D1C8214900380001F0D3FE002903D1012302E0012300E00023002B04D0544A0023A4185D4103E0534A0023A4189E
:4006C0005D4101374F45DDD343461B0F012213409A00D3185B004246120E0F271740DF197B1E5B00494A9B5A9A464B469B0705D16421484601F0A6FE002908D1C821490069
:40070000484601F09FFE002903D1012302E0012300E00023002B04D0022F02D901239C46E2443B4A00235046002101F0B1FE24184D4143461B0D03273B409800C3185B004F
:400740004246100C0F22904610401818304A0023002101F09DFE2F4A01235B428018594124184D41300D0740B800C7197F00300C43461840381880231B04334000D001239D
:40078000002B13D08023DB0332001A409A4201D1012300E00023002B03D00B2801D80C3004E0002B02D10C2800D10020E12212010023002101F06CFE24184D41330B072216
:4007C000904613409800C3185B00300A0F27384018183C220023002101F05AFE001969413309424613409A00D3185B003E409C190025001969411CBC90469946A246F0BD08
:40080000B20700000085E2018033E101003000008051010080AEFEFF70B50C00431E0F4AD3181D7E022816D18B0705D16421200001F008FE002908D1C8214900200001F00A
:4008400001FE002903D1012302E0012300E00023002B00D00135280070BDC04600300000F0B55F4656464D464446F0B485B0824614001D009D4B9E4A90461EE0A41BBD415D
:4008800001239C46E04443469B0705D16421404601F0D8FD002908D1C8214900404601F0D1FD002903D1012302E0012300E00023002B01D08F4B00E08C4B1E000027AF42D6
:4008C000DCD1A342DAD941460120FFF7A5FF8A4B58430137C146B8460AE0A41BBD4101239C46E04449464046FFF796FF824B584306000027AF42F0D1A042EED94746C846C8
:400900007D4A00232000290001F0A2FD7A4941430A000023AB4203D1A14201D900220023A41A9D41431C9946E122120100232000290001F08DFD0090E121090141430E9B1D
:40094000002B14D0002D03D10AD16C4B9C4207D9009B0C2B0ED90C38009001239B460EE0009B002B09D19B460C33009307E000239B4604E001239B4601E000239B460A0081
:400980000023AB4203D1A14201D900220023A41A9D413C2200232000290001F059FD06000101891B8A000023AB4203D1A24201D900220023A41A9D41029403950A2138005A
:4009C00001F0BAFC05070A21380001F03BFD0C0625430A21484601F0AFFC04052C430A21484601F02FFD0D042C43FA218900404601F0A2FC05032543FA218900404601F0D7
:400A000021FD0C006421200001F096FC000205436421200001F016FD0C000A21200001F08BFC000105430A21200001F00BFD0D4353465D600E9BDB055A4695052B431C0022
:400A40000A21009801F078FC050525430A21009801F0F8FC0C0425430A21300001F06CFC04032C430A21300001F0ECFC09020C430A21029D039E280001F05EFC00010443DE
:400A80000A21280001F0DEFC0C4353461C60022F04D80C3701235B429C46E04401371A2078430A2101F048FC4844404443469C0804196421404601F03FFC430018184000CC
:400AC0002418C8214900404601F036FC2018072101F0B8FC002900D107315346996005B03CBC90469946A246AB46F0BD8033E101B20700000085E20180510100C1A800003D
:400B000010B582B0074B1A685B68074CE068002112184B41054C00912000FFF7A1FE206802B010BD60020020880100204402002010B582B0074B1A685B68074CE06800213C
:400B400012184B41054C00912000FFF789FE606802B010BD600200208801002044020020F0B5474680B486B016000023009302000B0002A8FFF774FEF30701D4012300E00E
:400B80000023002B23D002990B09072213409A00D3185A000F270F40BF183A2F02D87B1C984601E0002398467F2399430D000A21404601F0C1FB04012C430A21404601F0F5
:400BC00041FC0C430294474503D9012302E0012300E00023002B28D0B20726D4029C230B072213409A00D3185A00230A0F271F40D7193A2F02D87B1C984601E000239846F5
:400C0000914B1C4025000A21404601F095FB04032C430A21404601F015FC09020C430294B84501D2012300E00023002B25D0720723D4029D2B0D032213409A00D3185A0057
:400C40002B0C0F241C401419162C01D8671C00E000277E4B1D400A21380001F06DFB01050D430A21380001F0EDFB090429430291A74201D2012300E00023002B75D0F20611
:400C800073D4039C230D032213409A00D3185A00230C0F251D405519330723D5230F012213409A00D3185A00200E0F2318401018220B03211140FA2292005143220A1A4096
:400CC00064277A43891822091A409700BA185700C9192340C918FFF79FFDEF1DB84230D23F1A2EE0230B03221A40FA239B0053431900220A0F20024064273B005343CA18B0
:400D0000230903409900CB1859005218010021405118230F012213409A00D3185A00230E18401018F743FFF777FD3B0704D5EF1DB84206D23F1A04E0854201D26F1C00E023
:400D4000012742490C400A21380001F0F5FA01050C430A21380001F075FB090421430391AF4201D2012300E00023002B25D0B20623D4039D2B0F012213409A00D3185A002A
:400D80002B0E0F241C4014190B2C01D8671C00E001272F4B1D400A21380001F0CDFA01070D430A21380001F04DFB090629430391A74201D2012300E00023002B3CD073061B
:400DC0003AD40398030B03241C40FA26B60021007143040A0F231C40642254430C1902091A4091008A18510064180340E4180134800B85033100200001F09EFA000305431F
:400E00003100200001F01EFB0C006421200001F093FA000205436421200001F013FB0C000A21200001F088FA000105430A21200001F008FB0D43039502990398FFF7FEFBDB
:400E400006B004BC9046F0BDFF80FFFFFFFFC0FFFFFFFFE0F0B55F4656464D464446F0B487B080460D00CE4B1A685B680021009102A8FFF7F5FC029C22090720024093004B
:400E80009A1853000F210A002240D21843461E68330903409800C31858000B0033401F18BA4202D90123994601E000239946EB0701D4012300E00023002B05D04B46002B32
:400EC00001D0002700E017000A21380001F034FA03019A460A21380001F0B4FA53461943230B072213409A00D3185800220A0F2313401818AB0708D44B46002B10D03A28B2
:400F000001D8471C0DE000270BE0330B072213409A00D3185A00330A0F271F40BF1800E00700874202D20123994601E0002399469C4B19408A460A21380001F0FDF901036C
:400F400053460B439A460A21380001F07BFA090253461943230D03221A4093009A185000240C0F231C4003196A0708D44A46002A22D0162B01D85C1C1FE000241DE0320DD9
:400F800003200240900082185000320C0F241440041980221204324000D00122002A0CD08022D2031640964201D1012200E00022002A02D00C3400E01C009C4202D20123A3
:400FC0009B4601E000239B46774E0E400A21200001F0B2F9000506430A21200001F032FA09040E43B146039C220D03210A4093009A185000230C0F26334082469A4443464F
:401000005F683B0D0B409A00D3185A003B0C1E409619EB065AD42B072BD5230F012213409A00D3185A00200E0F2318401018220B1140FA2292005143220A1A4064267243E6
:40104000891822091A409600B218560089192340C918FFF7E1FB049E43469B689E4201D89E1B01E09E1B07365644B0422ED2361A2CE05B46002B28D0230B03221A40FA23EF
:401080009B0053431900220A0F200240642633005343CA18230903409900CB1859005218010021405118230F012213409A00D3185A00230E18401018FFF7AEFB824502D229
:4010C00053465E1C02E0012600E05646564502D20123984601E0002398460A21300001F02BF903059A460A21300001F0ABF9090453461943230F012213409A00D318580036
:40110000220E0F231340C3182022154008D14246002A10D00B2B01D85E1C0DE001260BE03A0F012002409000821850003A0E0F261640861900E01E009E4202D20123984649
:4011400001E000239846194B19408A460A21300001F0F2F8010753460B439A460A21300001F070F9090653461943230B03221A40FA239B005A43230A0F2633406420434361
:40118000D218230933409800C3185800121834401419002D0CD14346002B1FD001341DE060020020FF80FFFFFFFFC0FFFFFFFFE03B0B03221A40FA239B0053431D003A0A24
:4011C0000F242240642003005343EA183B0923409800C318580012182740D4190E00FA218900200001F0A8F800030643FA218900200001F027F90D006421280001F09CF888
:401200000002340004436421280001F01BF90D000A21280001F090F8000104430A21280001F010F9200008434946FFF707FA07B03CBC90469946A246AB46F0BD70B5074BBF
:40124000010034C934C31A000B681360044B1978FFF700FE034B1861596170BD34020020C80000208801002010B5FF230340054A1360C1B20448FFF7EDFD044B1861596103
:4012800010BDC046C80000203402002088010020F0B55F4656464D464446F0B483B0834689461700009319001000FFF7B5FA824601230193984601262DE0022F04D83800B3
:4012C0000C30009B5D1E01E0009D380001301A2358430A2101F030F834186019AC0804196421280001F028F8430018184300E418C8214900280001F01FF82018072101F0E0
:40130000A1F8002900D107318B4503D101239C46E04401960136C84501D85645CDD90A21380001F009F804070A21380001F08AF809060C430A21019D280000F0FDFF0005A9
:4013400004430A21280001F07DF809040C43FA218900009D280000F0EFFF00030443FA218900280001F06EF80D006421280000F0E3FF000204436421280001F063F80D0082
:401380000A21280000F0D8FF000104430A21280001F058F82000084303B03CBC90469946A246AB46F0BDC046F0B589B005003C4B1A685B680021009104A8FFF751FA059AF3
:4013C000130B03211940FA239B004B431E00110A0F242140642003004B43F118130923409800C3185800091822408C182B7D012B3ED12B69AE680A210393180000F09CFFBF
:4014000007070A21039801F01DF809060F430A21300000F091FF000507430A21300001F011F809040F43FA218900200000F084FF00030743FA218900200001F003F80E0051
:401440006421300000F078FF00023C0004436421300000F0F7FF0E000A21300000F06CFF000104430A21300000F0ECFF0C4306E023002A69E9686868FFF70AFF04002E6849
:401480000A21300000F058FF05050A21300000F0D9FF090429432000FFF7D0F809B0F0BD60020020F0B583B001900E000B0D032423409A00D31858000F0C0F231F40C7199C
:4014C0000A0F01210A4091008A185100300E18400D18320B1440FA22920062431000340A1C4064210A006243841832091A4091008A18510064183340E41801993000FFF706
:401500009DF8364B18605960354B5E60019A1A60022D01D80C35013C681C1A2358430A2100F00AFFC7193F19A308FF186421200000F002FF430018184300FF18C82149007C
:40154000200000F0F9FE3818072100F07BFF002900D10731224B99602248FFF725FF224CA061E1612148FFF71FFF206261621B4B1A685B68A069E16999421FD801D190427F
:401580001CD8164B18685968174B1A6A5B6A994214D801D1904211D80122154B1A70E1221201114BDA600D490C684D68114A01235B4212196B410A604B6004E000230C4AF9
:4015C0001370094AD3600C4B19780C48FFF742FC054B1861596103B0F0BDC046600200204402002000020020880100201C02002058020020F0F1FFFFC80000203402002001
:4016000010B51A4B197502681A6042685A60C268DA6082689A6002691A611800FFF7C4FE134B9861D961134A106851689A69DB698B4215D801D1824212D80E4B1868596872
:401640000B4B1A6A5B6A99420AD801D1904207D80122094B1A70E1221201054BDA6004E00023054A1370024AD36010BD0002002088010020600200205802002010B51A4BD4
:40168000197502681A6042685A60C268DA6082689A6002691A611800FFF786FE134B18625962134A106851689A69DB698B4215D801D1824212D80E4B186859680B4B1A6A7E
:4016C0005B6A99420AD801D1904207D80122094B1A70E1221201054BDA6004E00023054A1370024AD36010BD1C020020880100206002002058020020F0B5474680B486B0A0
:4017000001242B4B1C702B4D0023EB602A4A14602A4A137002222A4BDA606B461C7503260096019406239846039316270297049601216846FFF764FF6B461C7500960194B1
:401740004346039302970433049301216846FFF795FF1C48FFF728FEA861E9611A48FFF723FE28626962194B1A685B68A869E969994214D801D1904211D8144B18685968E8
:401780000C4B1A6A5B6A994209D801D1904206D801220A4B1A70E1221201064BDA600C490020FFF77FFE06B004BC9046F0BDC04618020020880100205402002058020020EE
:4017C00044020020000200201C020020600200207019010110B5034B1B78002B01D1FFF78BFF10BD1802002070B5334A936A11688C4663449362526893425CD32F4E34688F
:4018000075680120002100196941306071609B1A294A936230687168D3699269904208D1994206D10122264B1A70E1221201224BDA60214C226A636AE0680021121A8B4141
:401840001E490868496882420FD18B420DD100231B4A1370E3601B48FFF7A6FDA061E1611948FFF7A1FD20626162134CE0680021124B1A685B6812184B4165692469A2426B
:4018800019D1AB4217D1114A0423D4682343D3600F4B1A680F4B1A60084B1C685D68D2B200196941FFF75CF9034B186159619B68002B00D0984770BD88010020600200207E
:4018C00058020020000200201C02002044020020C80000205402002070B505000078012404E000F0ADFC285D0134E4B20028F8D170BDC046034A1168034B0B4000031843D5
:401900001060704708000440FF8FFFFF024B1B68012018407047C0460C002E401F2318401E3B8340014A13607047C04600E100E001BE704770B504000D001F2802D9002048
:40194000FFF7F6FF1034A40080239B059C4664442068256070BDC04610B5034B1B7B584300F0DAFC10BDC046D8000020F0B557464E46C0B483B0040000F0D7FC0190E71ED8
:401980002D2F74D83F4B1B78DBB29C4208D83E4B1B78DBB29A463D4B1B78DBB2994631E03B4B1B78DBB29C4208D83A4B1B78DBB29A46394B1B78DBB2994623E0374B1B7872
:4019C000DBB29C4208D8364B1B78DBB29A46354B1B78DBB2994615E0334B1B78DBB29C4208D8324B1B78DBB29A46314B1B78DBB2994607E02F4B1B78DBB29A462E4B1B78E6
:401A0000DBB299462D4BDE5D2F2E09D92A2C07D919222B4B1A60052000F07EFC192503E0274B1D683F231D40B54206D9234BDA5D234B1A60052000F06FFC1F4B9C466444AA
:401A40002378DBB21F4A13601F4B52461A601F4B4A461A600520FFF77FFFB5420AD2174BDA5D174B1A60052000F056FC02E00020FFF75EFF019800F05CFC03B00CBC9146A2
:401A80009A46F0BD40F3FF0F41F3FF0F42F3FF0F43F3FF0F44F3FF0F45F3FF0F46F3FF0F47F3FF0F48F3FF0F49F3FF0F4AF3FF0F4BF3FF0F4CF3FF0F4DF3FF0F243000005C
:401AC0002CFF0B4028FF0B401CFF0B4020FF0B4010B504000F4A116801230B4313600E4A0E4B1A600E4A1368802109020B431360002809D100200CE00120FFF72DFFFFF7FC
:401B000005FF002804D1013C002CF5D1102000E0002010BD60F02E400220000078002E4010002E4010B500F000FC044A136804218B43136030BF00F0FCFB10BD10ED00E0D4
:401B4000024B1868800F80077047C0460C020B40034B1868C0231B02184000D00120704700010B4010B50D4B1A6801218A431A601A68022082431A60094A10683024A04365
:401B8000203C204310601068093CA043014311601A68802109060A431A6010BD00F02E4000FF2E4010B500F0C0FB044A1368C02109020B43136000F0BCFB10BD00010B406A
:401BC00010B500F0B2FB08490A68084B1A408024E40122430A600A6813408022120213430B6000F0A6FB10BD00010B40FF3FFFFF10B50400022802D90020FFF799FE044BCF
:401C00001868E4000134E0400123184010BDC04610020B4070B504000D00022802D90020FFF786FE2000FFF7E3FF00280AD1064A1368E40003210800A04083430D40A540BC
:401C40001D43156070BDC0460C020B4010B5084BDB68002B0BD0074A136801218B431360034C21690020FFF7D5FF0023E36010BDB401002010020B400300034A1068DB00A8
:401C8000D8400323184070470C020B4070B504000D00012802D90020FFF74AFE2000FFF7A7FF002809D105490B68E40002340122A2409343A5401D430D6070BD0C020B403A
:401CC00010B50400012802D90020FFF731FE044B1868E4000234E0400123184010BDC0460C020B4010B504000C4A136803431360C30704D50020FFF77BFF0028FAD0E305C1
:401D000004D50120FFF774FF0028FAD0E30304D50220FFF76DFF0028FAD010BD10020B4010B50400FFF714FF002818D10C4A1368A3431360E30704D50020FFF759FF002889
:401D4000FAD1E30504D50120FFF752FF0028FAD1E30304D50220FFF74BFF0028FAD110BD10020B4070B505000C00012802D90020FFF7DEFD0D4B1B689B0F01D1C92000E0F3
:401D80005D20FFF7E9FD0A490B682D01094AAA409343AC401C430C60044B1B689B0F01D1432000E01F20FFF7D7FD70BD0C020B4008020B40FFFF000010B5012809D00028AA
:401DC00002D0022809D00BE0084B18680004000C0AE0064B1868000C06E0054B186803E00020FFF7A5FD002010BDC04600020B4004020B4010B50020FFF7FAFE002803D0C9
:401E00000022184B5A6121E00120FFF7F1FE002803D00122134B5A6118E00220FFF7E8FE002803D002220F4B5A610FE00D4C0123E360002363610020FFF71EFF206100218F
:401E40000020FFF7E7FE0120FFF74CFF054B5869FFF7B2FF0400034B5869FFF7ADFF8442F9D010BDB401002070B50400FFF768FEA04211D000F059FA0500FFF7BBFF074AD6
:401E800013689B009B08A40FA4071C431460FFF7DDFE280000F04DFA70BDC0460C020B4070B5050000F041FA0400FFF751FE002803D0FFF785FE012100E00021084828408F
:401EC000084A1568084B2B40184310601368012901D1FFF767FE200000F02BFA70BDC0460404040010020B40FBFBFBFF10B5022805D88000044B1B189869996103E000202B
:401F0000FFF716FD002010BDB401002010B502280BD88000074BC158074B5A6A8A435A62064A53680B43536002E00020FFF700FD10BDC04654300000B4010020EC00002041
:401F400010B5022807D88000054BC158054A53688B43536002E00020FFF7EAFC10BDC04654300000EC00002010B5244B1B685B0715D5234B5B685B070ED5224B596A042011
:401F800001401F4C62688A4362605A6A82435A629B69002B00D098470420FFF781FF174B1B685B0518D5164B5B685B0510D5154B596A8022D2001140114842688A4342606A
:401FC000596A114A0A405A62DB69002B00D098478020C000FFF764FF084B1B685B030CD5074B5B685B0304D5064B1B6A002B00D098478020C002FFF753FF10BD10020B4001
:40200000EC000020B4010020FFFBFFFF70B504000E001500012823D8FFF752FE00281FD1114B9D421CD8002E0AD12000FFF7C4FE8542FAD32000FFF7BFFE8542FAD812E0F7
:40204000A2000A4BD65829002000FFF78BFE084A536A33435362074A53683343536002E00020FFF765FC70BDFFFF000054300000B4010020EC00002070B504000E001500CF
:40208000012811D8FFF71CFE00280DD1084B9D420AD82000FFF790FE2A181204120C31002000FFF7B3FF02E00020FFF741FC70BDFFFF00000004000C014B18607047C046E0
:4020C00008012040024B18680004000C7047C046080120400004000C014B18607047C046140120400004000C014B18607047C0460C01204070B504000D0000F016F9AC404F
:40210000024B1C6000F015F970BDC0460800204010B500F00AF9064A116801230B43136000F007F918210120FFF7E4FF10BDC04600002040014B18607047C0463801204067
:4021400010B50022094B1A600D32094B1A600320FFF7F0FF80200002FFF7BCFF8020C001FFF7C0FF0020FFF7A5FF10BD000120402401204010B5064B1B78002B04D1FFF720
:40218000DFFF0122024B1A70FFF7C2FF10BDC046DC010020014B18687047C0463C012040014B18607047C046300120408423014AD05070470000002010B5040000F0B5F839
:4021C000044A1168044B0B40A4031C43146000F0B0F810BD10E400E0FF3FFFFF80229202014B1A607047C04600E100E080229202014B1A607047C04680E100E010B5040052
:40220000FFF7F4FF2000FFF7D1FF0320FFF7D4FFFFF7E4FF10BDC04680229202014B1A607047C04680E200E00000000000000000000000000000000000000000000000003C
:40224000FEB5494652465B460EB407462E4909688A462E4A12682E48022100F06DF803002A480068C0182A4900F066F806001F3EB346234A126801219140C9430C00012552
:40228000002600F052F8814651460B6823400B605846043000F040F83800F040284090400B68234003430B60584600F035F80136072EF1D900200130012090400B682340F5
:4022C00003430B605846063000F026F8484600F030F8C046C046C0460EBC894692469B46FEBDC046C046C046C046C046C046C046C046C046C046C046C046C046C046C0462C
:40230000D4000020D0000020CC000020E800002000C20100000000000230800803D00138FDD1C046C046C0467047EFF3108072B6704780F310887047002243088B4274D311
:4023400003098B425FD3030A8B4244D3030B8B4228D3030C8B420DD3FF22090212BA030C8B4202D31212090265D0030B8B4219D300E0090AC30B8B4201D3CB03C01A52415E
:40238000830B8B4201D38B03C01A5241430B8B4201D34B03C01A5241030B8B4201D30B03C01A5241C30A8B4201D3CB02C01A5241830A8B4201D38B02C01A5241430A8B4235
:4023C00001D34B02C01A5241030A8B4201D30B02C01A5241CDD2C3098B4201D3CB01C01A524183098B4201D38B01C01A524143098B4201D34B01C01A524103098B4201D369
:402400000B01C01A5241C3088B4201D3CB00C01A524183088B4201D38B00C01A524143088B4201D34B00C01A5241411A00D20146524110467047FFE701B5002000F006F8F9
:4024400002BDC0460029F7D076E770477047C046002B11D1002A0FD1002900D1002802D00021C943081C07B4024802A14018029003BDC046D9FFFFFF03B4684601B5029897
:4024800000F032F8019B9E4602B00CBC7047C046F0B54F464646C0B41604360C9946330005042C0C070C150C63437E436F4365431C0CAD1964199C46A64203D980235B025C
:4024C000984647446346250CEF191D044B464A4343432D0C240464199918C91920000CBC90469946F0BDC046F0B54D46564644465F46F0B4924683B004000D0099468B429C
:402500002FD82CD04946504600F0AEF829000600200000F0A9F8331A9846203B9B4600D574E053465A4693401F005346424693401E00AF4229D826D05B46A41BBD41002BBF
:4025400000DA79E0002200230092019301235A4693400193012342469340009319E08242D0D900220023009201930C9B002B01D01C605D600098019903B03CBC9046994641
:40258000A246AB46F0BDA342D6D900220023009201934346002BE8D0FB0772081A4346467B080EE0AB4201D1A2420CD8A41A9D41012024196D410021013E24184D41002ECD
:4025C00006D0AB42EED9013E24196D41002EF8D15B460098019900196941002B22DB2B005A46D3402A004446E2401C005B461500002B2CDB26009E40330026004746BE40D2
:402600003200801A994100900191AEE7424620239B1A5246DA40414613004A468A4017001F4382E7424620239B1A2A0046469A402300F3401343D5E74246202300219B1A1C
:402640000022009101920122DA40019282E74246202326009B1ADE402F00B446974066463B003343C9E7C04610B5002903D100F007F8203002E0081C00F002F810BDC04640
:402680001C2101231B04984201D3000C10391B0A984201D3000A08391B09984201D30009043902A2105C40187047C04604030202010101010000000000000000014B186861
:4026C0007047C046540100200E4B70B500251E000D4CE41AA410A54204D0AB00F35898470135F8E700F0D8FC084B00251E00084CE41AA410A54204D0AB00F3589847013511
:40270000F8E770BDA4300000A4300000A4300000AC30000003008218934202D019700133FAE770470EB410B59DB002A9029008610B48822488604861012040421FABC881E2
:40274000084804CBA400006801938C8100F06EF80023029A13701DB010BC08BC03B01847FFFFFF7F54010020F0B58E6885B007000C00039201939E4243D890238A89DB00ED
:402780001A423ED003250969236801985B1A029363695D43EB0F5D19029B6D1001331B18AB4200D91D00530510D52900380000F041FB061E14D0029A216900F0D0FAA289CA
:4027C000194B134080221343A38112E02A00380000F090FB061E0CD12169380000F0DEFA0C23402201203B60A38940421343A38117E0029B2661F61826606561019EED1A1C
:40280000A560019BB34200D21E0032000399206800F0AEFA0020A3689B1BA36023689E19266005B0F0BDC0467FFBFFFFF0B59FB0029005938B890F0016001B0610D50B69C7
:40284000002B0DD1402100F0F5FA38603861002804D10C23029A01381360D8E040237B61002306AD6B6120336B761033AB7634002378002B03D1A31B049312D003E0252B01
:40288000F9D00134F4E7A31B320039000298FFF76BFF431C00D1B4E06A69049B944663446B612378002B00D1ABE00122002352426A6002A95432521801342B60EB60AB6022
:4028C0001370AB65534E21780522300000F03CFA002807D00123801B83402A68013413432B60EFE72B68DA0604D55322202102A8121811701A0704D553222B2102A81218A9
:40290000117022782A2A03D0099B00200A210EE0059A111D12680591002A01DB099204E05242EA60022213432B6001340BE02278303A092A04D84B4301349B180120F6E78C
:40294000002800D0099323782E2B1ED163782A2B0AD1059B02341A1D1B680592002B01DA01235B42079310E000230A201A0001346B6021783039092904D8424301345218C2
:402980000123F6E7002B00D00792234E21780322300000F0D9F9002806D04023801B83402A68013413432B60217806221B48661C297600F0C9F9002812D0194B002B06D193
:4029C0000722059B073393430833059314E005AB00933A00134B2900029800E000BF07E005AB00933A000F4B2900029800F08AF80390039B013304D06B69039A9B186B61DE
:402A000035E7BB890B985B0601D5012040421FB0F0BDC04662300000683000006C3000000000000069270000F7B5170001938A680B6900900C00934200DA130022003B6009
:402A400043321278002A01D001333B6023689B0602D53B6802333B60062523681D401ED0230043331B785A1E9341226892061CD53020E1184331087021005A1C45310978C8
:402A8000A2184332023311700FE022000123193201990098089EB047431C0ED00135E3683A689B1A9D42F0DBDAE72200019943320098089DA847431C02D10120404220E030
:402AC00006232068E1683A6803400025042B03D18D1AEB43DB171D40A3682269934201DD9B1AED180027BD420AD0220001231A3201990098089EB047431CDED00137F2E729
:402B00000020FEBDF0B58BB006920A0043320793059004920A7E0C00109B6E2A00D1ABE011D8632A22D009D8002A00D1B5E0582A00D0C5E045310A70814A4FE0642A1DD096
:402B4000692A1BD0BCE0732A00D1AAE009D86F2A29D0702A00D0B3E0202209680A43226037E0752A1FD0782A33D0A9E00E001A684236111D196013683370A4E021681A6822
:402B8000080606D4490604D5111D19600023D55E02E0111D19601568002D3BDA2D23049A6D42137036E021681A68080606D4490604D51568111D1960ADB202E0111D196063
:402BC00015685F4B227E039308276F2A1DD00A271BE022007821453211705A4A19680392081D226818600D68100602D4500600D5ADB2D30702D520231A4322601027002DE1
:402C000003D1202322689A4322602300002243331A7002E00A274A4B03936368A360002B09DB0422216891432160002D05D1049E002B11D07BE0002D79D0049E28003900AB
:402C4000FFF700FC039B013E5B5C280033703900FFF772FB051EF1D1082F09D12368DB0706D563682269934202DC3023013E3370049B9B1B23612BE009681A68080607D42B
:402C8000490605D5111D19601368A28A1A8004E0111D1960136862691A600023049E236116E01A68111D1960166800216268300000F04AF8002801D0801B6060636803E083
:402CC000260042363270012323610023049A1370079B09AA00932100069B0598FFF7A4FE431C02D10120404227E02369320006990598079DA847431CF4D0236800259B07EB
:402D00000FD4099BE068984217DA180015E022000123193206990598079EB047431CE1D00135E368099A9B1A9D42F0DBE9E72600039B42361B7833708EE70BB0F0BDC046CB
:402D40007330000084300000C9B28218904204D003788B4202D00130F8E700207047002310B59A4203D0CC5CC4540133F9E710BD10B5884202D98B18984201D3002305E0C5
:402D80009B1A013A08D3995C8154FAE7934203D0CC5CC4540133F9E710BD000070B50500002944D00C1F2368002B00DAE418280000F0D8F81E4A13681100002B02D1636019
:402DC000146031E0A3420DD92268A018834203D118685B688218226063600C6024E0A24203D813005A68002AF9D11E689819A0420BD12168711858181960824214D110687D
:402E00005268411819605A600EE0A04202D90C232B6009E021686018824203D1106852684118216062605C60280000F09CF870BDE4010020032370B5CD1C9D4308350600A6
:402E40000C2D01D20C2501E0002D01DBA94202D90C23336048E0300000F084F8234B1C681A002100002913D00B685B1B0DD40B2B02D90B60CC181EE08C4202D1636813609F
:402E80001AE04B6863600C0016E00C004968E9E7174C2368002B03D1300000F051F820602900300000F04CF8431C18D00323C41C9C43A0420DD12560300000F054F82000B3
:402EC00007220B30231D9043C31A0ED05A42E2500BE0211A300000F033F8431CEBD10C233000336000F03FF8002070BDE4010020E0010020F8B506000C001500002904D108
:402F00001100FFF797FF040018E0002A03D1FFF745FF2C0012E000F027F885420ED929003000FFF787FF071E07D021002A00FFF716FF21003000FFF731FF3C002000F8BD36
:402F4000002370B5064C050008002360FDF7D0FA431C03D12368002B00D02B6070BDC04668020020704770470B1F1A68101F002A04DA891804390B68D018043870470000EB
:402F80000000000064F5FF7F010000002530326C753A2530326C753A2530326C752E25316C7500002530326C752F2530326C752F2530326C75000000207C20002020416CE9
:402FC00061726D20000000004E6F20616C61726D000000000D00000000300F40000400400F400004E20463808340D840E22025048104C80101310F4004400F4003420F409F
:4030000000001F003B005A0078009700B500D400F300110130014E011F1C1F1E1F1E1F1F1E1F1E1F030405060708090A0B0C0E0F101112131415161718191B1C1D1E1F206C
:4030400021222325262728292A2B2E2F30313233343500000400000000040000000004004300232D302B2000686C4C00656667454647003031323334353637383941424335
:40308000444546003031323334353637383961626364656600000000F8B5C046F8BC08BC9E467047D901000069050000F8B5C046F8BC08BC9E467047B1010000D030000059
:4030C000C00000209800000018010000000000000000000070020020FF000000000304400300000005000000010000000000E02EC05D00001800000000366E01F000000086
:4031000004040400000000000000000000000000000000000000000000000000000000000000000060300000000000000000000000000000000000000000000000000000F3
:40314000000000000000000000000000000000000000000000000000000000000000000000000000F40000200000000000000000000000000000000000000000000000003B
:40318000000000000000000000000000000000000000000000000000000000000000000000000000000000000000000000000000000000000000000000000000000000000F
:4031C00000000000000000000000000000000000000000000000000000000000000000000000000000000000000000000000000000000000000000000000000000000000CF
:40320000000000000000000000000000000000000000000000000000000000000000000000000000000000000000000000000000000000000000000000000000000000008E
:40324000000000000000000000000000000000000000000000000000000000000000000000000000000000000000000000000000000000000000000000000000000000004E
:020000040003F7
:0200000490303A
:0200000084502A
:0200000490402A
:4000000000000000000000000000000000000000000000000000000000000000000000000000000000000000000000000000000000000000000000000000000000000000C0
:400040000000000000000000000000000000000000000000000000000000000000000000000000000000000000000000000000000000000000000000000000000000000080
:0200000490501A
:0C00000000021A6E11AA00011A7D95FA88
:0200000490600A
:0100000001FE
:00000001FF